{
  "_format": "hh-sol-artifact-1",
  "contractName": "SyntheticDreams",
  "sourceName": "contracts/SyntheticDreams.sol",
  "abi": [
    {
      "inputs": [],
      "stateMutability": "nonpayable",
      "type": "constructor"
    },
    {
      "anonymous": false,
      "inputs": [
        {
          "indexed": true,
          "internalType": "address",
          "name": "owner",
          "type": "address"
        },
        {
          "indexed": true,
          "internalType": "address",
          "name": "approved",
          "type": "address"
        },
        {
          "indexed": true,
          "internalType": "uint256",
          "name": "tokenId",
          "type": "uint256"
        }
      ],
      "name": "Approval",
      "type": "event"
    },
    {
      "anonymous": false,
      "inputs": [
        {
          "indexed": true,
          "internalType": "address",
          "name": "owner",
          "type": "address"
        },
        {
          "indexed": true,
          "internalType": "address",
          "name": "operator",
          "type": "address"
        },
        {
          "indexed": false,
          "internalType": "bool",
          "name": "approved",
          "type": "bool"
        }
      ],
      "name": "ApprovalForAll",
      "type": "event"
    },
    {
      "anonymous": false,
      "inputs": [
        {
          "indexed": true,
          "internalType": "address",
          "name": "previousOwner",
          "type": "address"
        },
        {
          "indexed": true,
          "internalType": "address",
          "name": "newOwner",
          "type": "address"
        }
      ],
      "name": "OwnershipTransferred",
      "type": "event"
    },
    {
      "anonymous": false,
      "inputs": [
        {
          "indexed": true,
          "internalType": "address",
          "name": "from",
          "type": "address"
        },
        {
          "indexed": true,
          "internalType": "address",
          "name": "to",
          "type": "address"
        },
        {
          "indexed": true,
          "internalType": "uint256",
          "name": "tokenId",
          "type": "uint256"
        }
      ],
      "name": "Transfer",
      "type": "event"
    },
    {
      "inputs": [
        {
          "internalType": "address",
          "name": "to",
          "type": "address"
        },
        {
          "internalType": "uint256",
          "name": "tokenId",
          "type": "uint256"
        }
      ],
      "name": "approve",
      "outputs": [],
      "stateMutability": "nonpayable",
      "type": "function"
    },
    {
      "inputs": [
        {
          "internalType": "address",
          "name": "owner",
          "type": "address"
        }
      ],
      "name": "balanceOf",
      "outputs": [
        {
          "internalType": "uint256",
          "name": "",
          "type": "uint256"
        }
      ],
      "stateMutability": "view",
      "type": "function"
    },
    {
      "inputs": [],
      "name": "contractURI",
      "outputs": [
        {
          "internalType": "string",
          "name": "",
          "type": "string"
        }
      ],
      "stateMutability": "pure",
      "type": "function"
    },
    {
      "inputs": [
        {
          "internalType": "uint256",
          "name": "tokenId",
          "type": "uint256"
        }
      ],
      "name": "getApproved",
      "outputs": [
        {
          "internalType": "address",
          "name": "",
          "type": "address"
        }
      ],
      "stateMutability": "view",
      "type": "function"
    },
    {
      "inputs": [],
      "name": "getCurrentToken",
      "outputs": [
        {
          "internalType": "uint256",
          "name": "",
          "type": "uint256"
        }
      ],
      "stateMutability": "view",
      "type": "function"
    },
    {
      "inputs": [
        {
          "internalType": "address",
          "name": "owner",
          "type": "address"
        },
        {
          "internalType": "address",
          "name": "operator",
          "type": "address"
        }
      ],
      "name": "isApprovedForAll",
      "outputs": [
        {
          "internalType": "bool",
          "name": "",
          "type": "bool"
        }
      ],
      "stateMutability": "view",
      "type": "function"
    },
    {
      "inputs": [
        {
          "internalType": "bytes32",
          "name": "textId",
          "type": "bytes32"
        }
      ],
      "name": "isTextMinted",
      "outputs": [
        {
          "internalType": "bool",
          "name": "",
          "type": "bool"
        }
      ],
      "stateMutability": "view",
      "type": "function"
    },
    {
      "inputs": [
        {
          "internalType": "address",
          "name": "recipient",
          "type": "address"
        },
        {
          "internalType": "string",
          "name": "tokenURI",
          "type": "string"
        },
        {
          "internalType": "bytes32",
          "name": "textId",
          "type": "bytes32"
        }
      ],
      "name": "mintToken",
      "outputs": [
        {
          "internalType": "uint256",
          "name": "",
          "type": "uint256"
        }
      ],
      "stateMutability": "payable",
      "type": "function"
    },
    {
      "inputs": [],
      "name": "name",
      "outputs": [
        {
          "internalType": "string",
          "name": "",
          "type": "string"
        }
      ],
      "stateMutability": "view",
      "type": "function"
    },
    {
      "inputs": [],
      "name": "owner",
      "outputs": [
        {
          "internalType": "address",
          "name": "",
          "type": "address"
        }
      ],
      "stateMutability": "view",
      "type": "function"
    },
    {
      "inputs": [
        {
          "internalType": "uint256",
          "name": "tokenId",
          "type": "uint256"
        }
      ],
      "name": "ownerOf",
      "outputs": [
        {
          "internalType": "address",
          "name": "",
          "type": "address"
        }
      ],
      "stateMutability": "view",
      "type": "function"
    },
    {
      "inputs": [],
      "name": "renounceOwnership",
      "outputs": [],
      "stateMutability": "nonpayable",
      "type": "function"
    },
    {
      "inputs": [
        {
          "internalType": "address",
          "name": "from",
          "type": "address"
        },
        {
          "internalType": "address",
          "name": "to",
          "type": "address"
        },
        {
          "internalType": "uint256",
          "name": "tokenId",
          "type": "uint256"
        }
      ],
      "name": "safeTransferFrom",
      "outputs": [],
      "stateMutability": "nonpayable",
      "type": "function"
    },
    {
      "inputs": [
        {
          "internalType": "address",
          "name": "from",
          "type": "address"
        },
        {
          "internalType": "address",
          "name": "to",
          "type": "address"
        },
        {
          "internalType": "uint256",
          "name": "tokenId",
          "type": "uint256"
        },
        {
          "internalType": "bytes",
          "name": "data",
          "type": "bytes"
        }
      ],
      "name": "safeTransferFrom",
      "outputs": [],
      "stateMutability": "nonpayable",
      "type": "function"
    },
    {
      "inputs": [
        {
          "internalType": "address",
          "name": "operator",
          "type": "address"
        },
        {
          "internalType": "bool",
          "name": "approved",
          "type": "bool"
        }
      ],
      "name": "setApprovalForAll",
      "outputs": [],
      "stateMutability": "nonpayable",
      "type": "function"
    },
    {
      "inputs": [
        {
          "internalType": "bytes4",
          "name": "interfaceId",
          "type": "bytes4"
        }
      ],
      "name": "supportsInterface",
      "outputs": [
        {
          "internalType": "bool",
          "name": "",
          "type": "bool"
        }
      ],
      "stateMutability": "view",
      "type": "function"
    },
    {
      "inputs": [],
      "name": "symbol",
      "outputs": [
        {
          "internalType": "string",
          "name": "",
          "type": "string"
        }
      ],
      "stateMutability": "view",
      "type": "function"
    },
    {
      "inputs": [
        {
          "internalType": "uint256",
          "name": "tokenId",
          "type": "uint256"
        }
      ],
      "name": "tokenURI",
      "outputs": [
        {
          "internalType": "string",
          "name": "",
          "type": "string"
        }
      ],
      "stateMutability": "view",
      "type": "function"
    },
    {
      "inputs": [],
      "name": "totalSupply",
      "outputs": [
        {
          "internalType": "uint256",
          "name": "",
          "type": "uint256"
        }
      ],
      "stateMutability": "view",
      "type": "function"
    },
    {
      "inputs": [
        {
          "internalType": "address",
          "name": "from",
          "type": "address"
        },
        {
          "internalType": "address",
          "name": "to",
          "type": "address"
        },
        {
          "internalType": "uint256",
          "name": "tokenId",
          "type": "uint256"
        }
      ],
      "name": "transferFrom",
      "outputs": [],
      "stateMutability": "nonpayable",
      "type": "function"
    },
    {
      "inputs": [
        {
          "internalType": "address",
          "name": "newOwner",
          "type": "address"
        }
      ],
      "name": "transferOwnership",
      "outputs": [],
      "stateMutability": "nonpayable",
      "type": "function"
    },
    {
      "inputs": [
        {
          "internalType": "uint256",
          "name": "tokenId",
          "type": "uint256"
        },
        {
          "internalType": "string",
          "name": "newTokenURI",
          "type": "string"
        }
      ],
      "name": "updateTokenURI",
      "outputs": [],
      "stateMutability": "nonpayable",
      "type": "function"
    },
    {
      "inputs": [
        {
          "internalType": "address",
          "name": "",
          "type": "address"
        }
      ],
      "name": "walletMints",
      "outputs": [
        {
          "internalType": "uint256",
          "name": "",
          "type": "uint256"
        }
      ],
      "stateMutability": "view",
      "type": "function"
    }
  ],
  "bytecode": "0x6080604052666a94d74f430000600955612710600a55600a600b553480156200002757600080fd5b506040518060400160405280601081526020017f53796e74686574696320447265616d73000000000000000000000000000000008152506040518060400160405280600281526020017f53440000000000000000000000000000000000000000000000000000000000008152508160009080519060200190620000ac929190620001bc565b508060019080519060200190620000c5929190620001bc565b505050620000e8620000dc620000ee60201b60201c565b620000f660201b60201c565b620002d1565b600033905090565b6000600760009054906101000a900473ffffffffffffffffffffffffffffffffffffffff16905081600760006101000a81548173ffffffffffffffffffffffffffffffffffffffff021916908373ffffffffffffffffffffffffffffffffffffffff1602179055508173ffffffffffffffffffffffffffffffffffffffff168173ffffffffffffffffffffffffffffffffffffffff167f8be0079c531659141344cd1fd0a4f28419497f9722a3daafe3b4186f6b6457e060405160405180910390a35050565b828054620001ca906200026c565b90600052602060002090601f016020900481019282620001ee57600085556200023a565b82601f106200020957805160ff19168380011785556200023a565b828001600101855582156200023a579182015b82811115620002395782518255916020019190600101906200021c565b5b5090506200024991906200024d565b5090565b5b80821115620002685760008160009055506001016200024e565b5090565b600060028204905060018216806200028557607f821691505b602082108114156200029c576200029b620002a2565b5b50919050565b7f4e487b7100000000000000000000000000000000000000000000000000000000600052602260045260246000fd5b61353380620002e16000396000f3fe6080604052600436106101405760003560e01c8063715018a6116100b6578063e8a3d4851161006f578063e8a3d4851461045f578063e985e9c51461048a578063ef2d1746146104c7578063f0293fd3146104f2578063f2fde38b1461052f578063f92ae6e91461055857610140565b8063715018a6146103635780638da5cb5b1461037a57806395d89b41146103a5578063a22cb465146103d0578063b88d4fde146103f9578063c87b56dd1461042257610140565b806318160ddd1161010857806318160ddd1461024357806318e97fd11461026e57806323b872dd1461029757806342842e0e146102c05780636352211e146102e957806370a082311461032657610140565b806301ffc9a71461014557806306fdde0314610182578063081812fc146101ad578063095ea7b3146101ea5780631584816614610213575b600080fd5b34801561015157600080fd5b5061016c6004803603810190610167919061241e565b610595565b60405161017991906128d2565b60405180910390f35b34801561018e57600080fd5b50610197610677565b6040516101a491906128ed565b60405180910390f35b3480156101b957600080fd5b506101d460048036038101906101cf9190612478565b610709565b6040516101e1919061286b565b60405180910390f35b3480156101f657600080fd5b50610211600480360381019061020c91906123b1565b61074f565b005b61022d60048036038101906102289190612342565b610867565b60405161023a9190612b4f565b60405180910390f35b34801561024f57600080fd5b50610258610b3c565b6040516102659190612b4f565b60405180910390f35b34801561027a57600080fd5b50610295600480360381019061029091906124a5565b610b46565b005b3480156102a357600080fd5b506102be60048036038101906102b9919061222c565b610b5c565b005b3480156102cc57600080fd5b506102e760048036038101906102e2919061222c565b610bbc565b005b3480156102f557600080fd5b50610310600480360381019061030b9190612478565b610bdc565b60405161031d919061286b565b60405180910390f35b34801561033257600080fd5b5061034d600480360381019061034891906121bf565b610c8e565b60405161035a9190612b4f565b60405180910390f35b34801561036f57600080fd5b50610378610d46565b005b34801561038657600080fd5b5061038f610d5a565b60405161039c919061286b565b60405180910390f35b3480156103b157600080fd5b506103ba610d84565b6040516103c791906128ed565b60405180910390f35b3480156103dc57600080fd5b506103f760048036038101906103f29190612302565b610e16565b005b34801561040557600080fd5b50610420600480360381019061041b919061227f565b610e2c565b005b34801561042e57600080fd5b5061044960048036038101906104449190612478565b610e8e565b60405161045691906128ed565b60405180910390f35b34801561046b57600080fd5b50610474610fa1565b60405161048191906128ed565b60405180910390f35b34801561049657600080fd5b506104b160048036038101906104ac91906121ec565b610fc1565b6040516104be91906128d2565b60405180910390f35b3480156104d357600080fd5b506104dc611055565b6040516104e99190612b4f565b60405180910390f35b3480156104fe57600080fd5b50610519600480360381019061051491906121bf565b611066565b6040516105269190612b4f565b60405180910390f35b34801561053b57600080fd5b50610556600480360381019061055191906121bf565b61107e565b005b34801561056457600080fd5b5061057f600480360381019061057a91906123f1565b611102565b60405161058c91906128d2565b60405180910390f35b60007f80ac58cd000000000000000000000000000000000000000000000000000000007bffffffffffffffffffffffffffffffffffffffffffffffffffffffff1916827bffffffffffffffffffffffffffffffffffffffffffffffffffffffff1916148061066057507f5b5e139f000000000000000000000000000000000000000000000000000000007bffffffffffffffffffffffffffffffffffffffffffffffffffffffff1916827bffffffffffffffffffffffffffffffffffffffffffffffffffffffff1916145b80610670575061066f82611144565b5b9050919050565b60606000805461068690612daf565b80601f01602080910402602001604051908101604052809291908181526020018280546106b290612daf565b80156106ff5780601f106106d4576101008083540402835291602001916106ff565b820191906000526020600020905b8154815290600101906020018083116106e257829003601f168201915b5050505050905090565b6000610714826111ae565b6004600083815260200190815260200160002060009054906101000a900473ffffffffffffffffffffffffffffffffffffffff169050919050565b600061075a82610bdc565b90508073ffffffffffffffffffffffffffffffffffffffff168373ffffffffffffffffffffffffffffffffffffffff1614156107cb576040517f08c379a00000000000000000000000000000000000000000000000000000000081526004016107c290612acf565b60405180910390fd5b8073ffffffffffffffffffffffffffffffffffffffff166107ea6111f9565b73ffffffffffffffffffffffffffffffffffffffff1614806108195750610818816108136111f9565b610fc1565b5b610858576040517f08c379a000000000000000000000000000000000000000000000000000000000815260040161084f90612a4f565b60405180910390fd5b6108628383611201565b505050565b60006009543410156108ae576040517f08c379a00000000000000000000000000000000000000000000000000000000081526004016108a590612aef565b60405180910390fd5b60001515600c600084815260200190815260200160002060009054906101000a900460ff16151514610915576040517f08c379a000000000000000000000000000000000000000000000000000000000815260040161090c9061298f565b60405180910390fd5b600b54600e60008673ffffffffffffffffffffffffffffffffffffffff1673ffffffffffffffffffffffffffffffffffffffff168152602001908152602001600020541115610999576040517f08c379a0000000000000000000000000000000000000000000000000000000008152600401610990906129ef565b60405180910390fd5b6001600c600084815260200190815260200160002060006101000a81548160ff0219169083151502179055506109cf60086112ba565b60006109db60086112d0565b9050600a54811115610a22576040517f08c379a0000000000000000000000000000000000000000000000000000000008152600401610a1990612b2f565b60405180910390fd5b82600d600083815260200190815260200160002081905550610a4485826112de565b610a4e81856112fc565b610a56610d5a565b73ffffffffffffffffffffffffffffffffffffffff166108fc349081150290604051600060405180830381858888f19350505050158015610a9b573d6000803e3d6000fd5b506000600e60008773ffffffffffffffffffffffffffffffffffffffff1673ffffffffffffffffffffffffffffffffffffffff168152602001908152602001600020549050600181610aed9190612c34565b600e60008873ffffffffffffffffffffffffffffffffffffffff1673ffffffffffffffffffffffffffffffffffffffff1681526020019081526020016000208190555081925050509392505050565b6000600a54905090565b610b4e611370565b610b5882826112fc565b5050565b610b6d610b676111f9565b826113ee565b610bac576040517f08c379a0000000000000000000000000000000000000000000000000000000008152600401610ba390612b0f565b60405180910390fd5b610bb7838383611483565b505050565b610bd783838360405180602001604052806000815250610e2c565b505050565b6000806002600084815260200190815260200160002060009054906101000a900473ffffffffffffffffffffffffffffffffffffffff169050600073ffffffffffffffffffffffffffffffffffffffff168173ffffffffffffffffffffffffffffffffffffffff161415610c85576040517f08c379a0000000000000000000000000000000000000000000000000000000008152600401610c7c90612aaf565b60405180910390fd5b80915050919050565b60008073ffffffffffffffffffffffffffffffffffffffff168273ffffffffffffffffffffffffffffffffffffffff161415610cff576040517f08c379a0000000000000000000000000000000000000000000000000000000008152600401610cf690612a0f565b60405180910390fd5b600360008373ffffffffffffffffffffffffffffffffffffffff1673ffffffffffffffffffffffffffffffffffffffff168152602001908152602001600020549050919050565b610d4e611370565b610d5860006116ea565b565b6000600760009054906101000a900473ffffffffffffffffffffffffffffffffffffffff16905090565b606060018054610d9390612daf565b80601f0160208091040260200160405190810160405280929190818152602001828054610dbf90612daf565b8015610e0c5780601f10610de157610100808354040283529160200191610e0c565b820191906000526020600020905b815481529060010190602001808311610def57829003601f168201915b5050505050905090565b610e28610e216111f9565b83836117b0565b5050565b610e3d610e376111f9565b836113ee565b610e7c576040517f08c379a0000000000000000000000000000000000000000000000000000000008152600401610e7390612b0f565b60405180910390fd5b610e888484848461191d565b50505050565b6060610e99826111ae565b6000600660008481526020019081526020016000208054610eb990612daf565b80601f0160208091040260200160405190810160405280929190818152602001828054610ee590612daf565b8015610f325780601f10610f0757610100808354040283529160200191610f32565b820191906000526020600020905b815481529060010190602001808311610f1557829003601f168201915b505050505090506000610f43611979565b9050600081511415610f59578192505050610f9c565b600082511115610f8e578082604051602001610f76929190612847565b60405160208183030381529060405292505050610f9c565b610f9784611990565b925050505b919050565b60606040518060a00160405280606a8152602001613494606a9139905090565b6000600560008473ffffffffffffffffffffffffffffffffffffffff1673ffffffffffffffffffffffffffffffffffffffff16815260200190815260200160002060008373ffffffffffffffffffffffffffffffffffffffff1673ffffffffffffffffffffffffffffffffffffffff16815260200190815260200160002060009054906101000a900460ff16905092915050565b600061106160086112d0565b905090565b600e6020528060005260406000206000915090505481565b611086611370565b600073ffffffffffffffffffffffffffffffffffffffff168173ffffffffffffffffffffffffffffffffffffffff1614156110f6576040517f08c379a00000000000000000000000000000000000000000000000000000000081526004016110ed9061292f565b60405180910390fd5b6110ff816116ea565b50565b600060011515600c600084815260200190815260200160002060009054906101000a900460ff161515141561113a576001905061113f565b600090505b919050565b60007f01ffc9a7000000000000000000000000000000000000000000000000000000007bffffffffffffffffffffffffffffffffffffffffffffffffffffffff1916827bffffffffffffffffffffffffffffffffffffffffffffffffffffffff1916149050919050565b6111b7816119f8565b6111f6576040517f08c379a00000000000000000000000000000000000000000000000000000000081526004016111ed90612aaf565b60405180910390fd5b50565b600033905090565b816004600083815260200190815260200160002060006101000a81548173ffffffffffffffffffffffffffffffffffffffff021916908373ffffffffffffffffffffffffffffffffffffffff160217905550808273ffffffffffffffffffffffffffffffffffffffff1661127483610bdc565b73ffffffffffffffffffffffffffffffffffffffff167f8c5be1e5ebec7d5bd14f71427d1e84f3dd0314c0f7b2291e5b200ac8c7c3b92560405160405180910390a45050565b6001816000016000828254019250508190555050565b600081600001549050919050565b6112f8828260405180602001604052806000815250611a64565b5050565b611305826119f8565b611344576040517f08c379a000000000000000000000000000000000000000000000000000000000815260040161133b90612a2f565b60405180910390fd5b8060066000848152602001908152602001600020908051906020019061136b929190611fbe565b505050565b6113786111f9565b73ffffffffffffffffffffffffffffffffffffffff16611396610d5a565b73ffffffffffffffffffffffffffffffffffffffff16146113ec576040517f08c379a00000000000000000000000000000000000000000000000000000000081526004016113e390612a8f565b60405180910390fd5b565b6000806113fa83610bdc565b90508073ffffffffffffffffffffffffffffffffffffffff168473ffffffffffffffffffffffffffffffffffffffff16148061143c575061143b8185610fc1565b5b8061147a57508373ffffffffffffffffffffffffffffffffffffffff1661146284610709565b73ffffffffffffffffffffffffffffffffffffffff16145b91505092915050565b8273ffffffffffffffffffffffffffffffffffffffff166114a382610bdc565b73ffffffffffffffffffffffffffffffffffffffff16146114f9576040517f08c379a00000000000000000000000000000000000000000000000000000000081526004016114f09061294f565b60405180910390fd5b600073ffffffffffffffffffffffffffffffffffffffff168273ffffffffffffffffffffffffffffffffffffffff161415611569576040517f08c379a0000000000000000000000000000000000000000000000000000000008152600401611560906129af565b60405180910390fd5b611574838383611abf565b61157f600082611201565b6001600360008573ffffffffffffffffffffffffffffffffffffffff1673ffffffffffffffffffffffffffffffffffffffff16815260200190815260200160002060008282546115cf9190612cbb565b925050819055506001600360008473ffffffffffffffffffffffffffffffffffffffff1673ffffffffffffffffffffffffffffffffffffffff16815260200190815260200160002060008282546116269190612c34565b92505081905550816002600083815260200190815260200160002060006101000a81548173ffffffffffffffffffffffffffffffffffffffff021916908373ffffffffffffffffffffffffffffffffffffffff160217905550808273ffffffffffffffffffffffffffffffffffffffff168473ffffffffffffffffffffffffffffffffffffffff167fddf252ad1be2c89b69c2b068fc378daa952ba7f163c4a11628f55a4df523b3ef60405160405180910390a46116e5838383611ac4565b505050565b6000600760009054906101000a900473ffffffffffffffffffffffffffffffffffffffff16905081600760006101000a81548173ffffffffffffffffffffffffffffffffffffffff021916908373ffffffffffffffffffffffffffffffffffffffff1602179055508173ffffffffffffffffffffffffffffffffffffffff168173ffffffffffffffffffffffffffffffffffffffff167f8be0079c531659141344cd1fd0a4f28419497f9722a3daafe3b4186f6b6457e060405160405180910390a35050565b8173ffffffffffffffffffffffffffffffffffffffff168373ffffffffffffffffffffffffffffffffffffffff16141561181f576040517f08c379a0000000000000000000000000000000000000000000000000000000008152600401611816906129cf565b60405180910390fd5b80600560008573ffffffffffffffffffffffffffffffffffffffff1673ffffffffffffffffffffffffffffffffffffffff16815260200190815260200160002060008473ffffffffffffffffffffffffffffffffffffffff1673ffffffffffffffffffffffffffffffffffffffff16815260200190815260200160002060006101000a81548160ff0219169083151502179055508173ffffffffffffffffffffffffffffffffffffffff168373ffffffffffffffffffffffffffffffffffffffff167f17307eab39ab6107e8899845ad3d59bd9653f200f220920489ca2b5937696c318360405161191091906128d2565b60405180910390a3505050565b611928848484611483565b61193484848484611ac9565b611973576040517f08c379a000000000000000000000000000000000000000000000000000000000815260040161196a9061290f565b60405180910390fd5b50505050565b606060405180602001604052806000815250905090565b606061199b826111ae565b60006119a5611979565b905060008151116119c557604051806020016040528060008152506119f0565b806119cf84611c60565b6040516020016119e0929190612847565b6040516020818303038152906040525b915050919050565b60008073ffffffffffffffffffffffffffffffffffffffff166002600084815260200190815260200160002060009054906101000a900473ffffffffffffffffffffffffffffffffffffffff1673ffffffffffffffffffffffffffffffffffffffff1614159050919050565b611a6e8383611dc1565b611a7b6000848484611ac9565b611aba576040517f08c379a0000000000000000000000000000000000000000000000000000000008152600401611ab19061290f565b60405180910390fd5b505050565b505050565b505050565b6000611aea8473ffffffffffffffffffffffffffffffffffffffff16611f9b565b15611c53578373ffffffffffffffffffffffffffffffffffffffff1663150b7a02611b136111f9565b8786866040518563ffffffff1660e01b8152600401611b359493929190612886565b602060405180830381600087803b158015611b4f57600080fd5b505af1925050508015611b8057506040513d601f19601f82011682018060405250810190611b7d919061244b565b60015b611c03573d8060008114611bb0576040519150601f19603f3d011682016040523d82523d6000602084013e611bb5565b606091505b50600081511415611bfb576040517f08c379a0000000000000000000000000000000000000000000000000000000008152600401611bf29061290f565b60405180910390fd5b805181602001fd5b63150b7a0260e01b7bffffffffffffffffffffffffffffffffffffffffffffffffffffffff1916817bffffffffffffffffffffffffffffffffffffffffffffffffffffffff191614915050611c58565b600190505b949350505050565b60606000821415611ca8576040518060400160405280600181526020017f30000000000000000000000000000000000000000000000000000000000000008152509050611dbc565b600082905060005b60008214611cda578080611cc390612e12565b915050600a82611cd39190612c8a565b9150611cb0565b60008167ffffffffffffffff811115611cf657611cf5612f48565b5b6040519080825280601f01601f191660200182016040528015611d285781602001600182028036833780820191505090505b5090505b60008514611db557600182611d419190612cbb565b9150600a85611d509190612e5b565b6030611d5c9190612c34565b60f81b818381518110611d7257611d71612f19565b5b60200101907effffffffffffffffffffffffffffffffffffffffffffffffffffffffffffff1916908160001a905350600a85611dae9190612c8a565b9450611d2c565b8093505050505b919050565b600073ffffffffffffffffffffffffffffffffffffffff168273ffffffffffffffffffffffffffffffffffffffff161415611e31576040517f08c379a0000000000000000000000000000000000000000000000000000000008152600401611e2890612a6f565b60405180910390fd5b611e3a816119f8565b15611e7a576040517f08c379a0000000000000000000000000000000000000000000000000000000008152600401611e719061296f565b60405180910390fd5b611e8660008383611abf565b6001600360008473ffffffffffffffffffffffffffffffffffffffff1673ffffffffffffffffffffffffffffffffffffffff1681526020019081526020016000206000828254611ed69190612c34565b92505081905550816002600083815260200190815260200160002060006101000a81548173ffffffffffffffffffffffffffffffffffffffff021916908373ffffffffffffffffffffffffffffffffffffffff160217905550808273ffffffffffffffffffffffffffffffffffffffff16600073ffffffffffffffffffffffffffffffffffffffff167fddf252ad1be2c89b69c2b068fc378daa952ba7f163c4a11628f55a4df523b3ef60405160405180910390a4611f9760008383611ac4565b5050565b6000808273ffffffffffffffffffffffffffffffffffffffff163b119050919050565b828054611fca90612daf565b90600052602060002090601f016020900481019282611fec5760008555612033565b82601f1061200557805160ff1916838001178555612033565b82800160010185558215612033579182015b82811115612032578251825591602001919060010190612017565b5b5090506120409190612044565b5090565b5b8082111561205d576000816000905550600101612045565b5090565b600061207461206f84612b8f565b612b6a565b9050828152602081018484840111156120905761208f612f7c565b5b61209b848285612d6d565b509392505050565b60006120b66120b184612bc0565b612b6a565b9050828152602081018484840111156120d2576120d1612f7c565b5b6120dd848285612d6d565b509392505050565b6000813590506120f481613420565b92915050565b60008135905061210981613437565b92915050565b60008135905061211e8161344e565b92915050565b60008135905061213381613465565b92915050565b60008151905061214881613465565b92915050565b600082601f83011261216357612162612f77565b5b8135612173848260208601612061565b91505092915050565b600082601f83011261219157612190612f77565b5b81356121a18482602086016120a3565b91505092915050565b6000813590506121b98161347c565b92915050565b6000602082840312156121d5576121d4612f86565b5b60006121e3848285016120e5565b91505092915050565b6000806040838503121561220357612202612f86565b5b6000612211858286016120e5565b9250506020612222858286016120e5565b9150509250929050565b60008060006060848603121561224557612244612f86565b5b6000612253868287016120e5565b9350506020612264868287016120e5565b9250506040612275868287016121aa565b9150509250925092565b6000806000806080858703121561229957612298612f86565b5b60006122a7878288016120e5565b94505060206122b8878288016120e5565b93505060406122c9878288016121aa565b925050606085013567ffffffffffffffff8111156122ea576122e9612f81565b5b6122f68782880161214e565b91505092959194509250565b6000806040838503121561231957612318612f86565b5b6000612327858286016120e5565b9250506020612338858286016120fa565b9150509250929050565b60008060006060848603121561235b5761235a612f86565b5b6000612369868287016120e5565b935050602084013567ffffffffffffffff81111561238a57612389612f81565b5b6123968682870161217c565b92505060406123a78682870161210f565b9150509250925092565b600080604083850312156123c8576123c7612f86565b5b60006123d6858286016120e5565b92505060206123e7858286016121aa565b9150509250929050565b60006020828403121561240757612406612f86565b5b60006124158482850161210f565b91505092915050565b60006020828403121561243457612433612f86565b5b600061244284828501612124565b91505092915050565b60006020828403121561246157612460612f86565b5b600061246f84828501612139565b91505092915050565b60006020828403121561248e5761248d612f86565b5b600061249c848285016121aa565b91505092915050565b600080604083850312156124bc576124bb612f86565b5b60006124ca858286016121aa565b925050602083013567ffffffffffffffff8111156124eb576124ea612f81565b5b6124f78582860161217c565b9150509250929050565b61250a81612cef565b82525050565b61251981612d01565b82525050565b600061252a82612bf1565b6125348185612c07565b9350612544818560208601612d7c565b61254d81612f8b565b840191505092915050565b600061256382612bfc565b61256d8185612c18565b935061257d818560208601612d7c565b61258681612f8b565b840191505092915050565b600061259c82612bfc565b6125a68185612c29565b93506125b6818560208601612d7c565b80840191505092915050565b60006125cf603283612c18565b91506125da82612f9c565b604082019050919050565b60006125f2602683612c18565b91506125fd82612feb565b604082019050919050565b6000612615602583612c18565b91506126208261303a565b604082019050919050565b6000612638601c83612c18565b915061264382613089565b602082019050919050565b600061265b601d83612c18565b9150612666826130b2565b602082019050919050565b600061267e602483612c18565b9150612689826130db565b604082019050919050565b60006126a1601983612c18565b91506126ac8261312a565b602082019050919050565b60006126c4602283612c18565b91506126cf82613153565b604082019050919050565b60006126e7602983612c18565b91506126f2826131a2565b604082019050919050565b600061270a602e83612c18565b9150612715826131f1565b604082019050919050565b600061272d603e83612c18565b915061273882613240565b604082019050919050565b6000612750602083612c18565b915061275b8261328f565b602082019050919050565b6000612773602083612c18565b915061277e826132b8565b602082019050919050565b6000612796601883612c18565b91506127a1826132e1565b602082019050919050565b60006127b9602183612c18565b91506127c48261330a565b604082019050919050565b60006127dc601583612c18565b91506127e782613359565b602082019050919050565b60006127ff602e83612c18565b915061280a82613382565b604082019050919050565b6000612822602283612c18565b915061282d826133d1565b604082019050919050565b61284181612d63565b82525050565b60006128538285612591565b915061285f8284612591565b91508190509392505050565b60006020820190506128806000830184612501565b92915050565b600060808201905061289b6000830187612501565b6128a86020830186612501565b6128b56040830185612838565b81810360608301526128c7818461251f565b905095945050505050565b60006020820190506128e76000830184612510565b92915050565b600060208201905081810360008301526129078184612558565b905092915050565b60006020820190508181036000830152612928816125c2565b9050919050565b60006020820190508181036000830152612948816125e5565b9050919050565b6000602082019050818103600083015261296881612608565b9050919050565b600060208201905081810360008301526129888161262b565b9050919050565b600060208201905081810360008301526129a88161264e565b9050919050565b600060208201905081810360008301526129c881612671565b9050919050565b600060208201905081810360008301526129e881612694565b9050919050565b60006020820190508181036000830152612a08816126b7565b9050919050565b60006020820190508181036000830152612a28816126da565b9050919050565b60006020820190508181036000830152612a48816126fd565b9050919050565b60006020820190508181036000830152612a6881612720565b9050919050565b60006020820190508181036000830152612a8881612743565b9050919050565b60006020820190508181036000830152612aa881612766565b9050919050565b60006020820190508181036000830152612ac881612789565b9050919050565b60006020820190508181036000830152612ae8816127ac565b9050919050565b60006020820190508181036000830152612b08816127cf565b9050919050565b60006020820190508181036000830152612b28816127f2565b9050919050565b60006020820190508181036000830152612b4881612815565b9050919050565b6000602082019050612b646000830184612838565b92915050565b6000612b74612b85565b9050612b808282612de1565b919050565b6000604051905090565b600067ffffffffffffffff821115612baa57612ba9612f48565b5b612bb382612f8b565b9050602081019050919050565b600067ffffffffffffffff821115612bdb57612bda612f48565b5b612be482612f8b565b9050602081019050919050565b600081519050919050565b600081519050919050565b600082825260208201905092915050565b600082825260208201905092915050565b600081905092915050565b6000612c3f82612d63565b9150612c4a83612d63565b9250827fffffffffffffffffffffffffffffffffffffffffffffffffffffffffffffffff03821115612c7f57612c7e612e8c565b5b828201905092915050565b6000612c9582612d63565b9150612ca083612d63565b925082612cb057612caf612ebb565b5b828204905092915050565b6000612cc682612d63565b9150612cd183612d63565b925082821015612ce457612ce3612e8c565b5b828203905092915050565b6000612cfa82612d43565b9050919050565b60008115159050919050565b6000819050919050565b60007fffffffff0000000000000000000000000000000000000000000000000000000082169050919050565b600073ffffffffffffffffffffffffffffffffffffffff82169050919050565b6000819050919050565b82818337600083830152505050565b60005b83811015612d9a578082015181840152602081019050612d7f565b83811115612da9576000848401525b50505050565b60006002820490506001821680612dc757607f821691505b60208210811415612ddb57612dda612eea565b5b50919050565b612dea82612f8b565b810181811067ffffffffffffffff82111715612e0957612e08612f48565b5b80604052505050565b6000612e1d82612d63565b91507fffffffffffffffffffffffffffffffffffffffffffffffffffffffffffffffff821415612e5057612e4f612e8c565b5b600182019050919050565b6000612e6682612d63565b9150612e7183612d63565b925082612e8157612e80612ebb565b5b828206905092915050565b7f4e487b7100000000000000000000000000000000000000000000000000000000600052601160045260246000fd5b7f4e487b7100000000000000000000000000000000000000000000000000000000600052601260045260246000fd5b7f4e487b7100000000000000000000000000000000000000000000000000000000600052602260045260246000fd5b7f4e487b7100000000000000000000000000000000000000000000000000000000600052603260045260246000fd5b7f4e487b7100000000000000000000000000000000000000000000000000000000600052604160045260246000fd5b600080fd5b600080fd5b600080fd5b600080fd5b6000601f19601f8301169050919050565b7f4552433732313a207472616e7366657220746f206e6f6e20455243373231526560008201527f63656976657220696d706c656d656e7465720000000000000000000000000000602082015250565b7f4f776e61626c653a206e6577206f776e657220697320746865207a65726f206160008201527f6464726573730000000000000000000000000000000000000000000000000000602082015250565b7f4552433732313a207472616e736665722066726f6d20696e636f72726563742060008201527f6f776e6572000000000000000000000000000000000000000000000000000000602082015250565b7f4552433732313a20746f6b656e20616c7265616479206d696e74656400000000600082015250565b7f546578742068617320616c7265616479206265656e20636c61696d6564000000600082015250565b7f4552433732313a207472616e7366657220746f20746865207a65726f2061646460008201527f7265737300000000000000000000000000000000000000000000000000000000602082015250565b7f4552433732313a20617070726f766520746f2063616c6c657200000000000000600082015250565b7f596f75206861766520616c7265616479206d696e74656420796f7572206c696d60008201527f6974000000000000000000000000000000000000000000000000000000000000602082015250565b7f4552433732313a2061646472657373207a65726f206973206e6f74206120766160008201527f6c6964206f776e65720000000000000000000000000000000000000000000000602082015250565b7f45524337323155524953746f726167653a2055524920736574206f66206e6f6e60008201527f6578697374656e7420746f6b656e000000000000000000000000000000000000602082015250565b7f4552433732313a20617070726f76652063616c6c6572206973206e6f7420746f60008201527f6b656e206f776e6572206e6f7220617070726f76656420666f7220616c6c0000602082015250565b7f4552433732313a206d696e7420746f20746865207a65726f2061646472657373600082015250565b7f4f776e61626c653a2063616c6c6572206973206e6f7420746865206f776e6572600082015250565b7f4552433732313a20696e76616c696420746f6b656e2049440000000000000000600082015250565b7f4552433732313a20617070726f76616c20746f2063757272656e74206f776e6560008201527f7200000000000000000000000000000000000000000000000000000000000000602082015250565b7f4e656564206d6f72652065746820746f206d696e740000000000000000000000600082015250565b7f4552433732313a2063616c6c6572206973206e6f7420746f6b656e206f776e6560008201527f72206e6f7220617070726f766564000000000000000000000000000000000000602082015250565b7f54686973204e46542070726f6a65637420686173206265656e20736f6c64206f60008201527f7574000000000000000000000000000000000000000000000000000000000000602082015250565b61342981612cef565b811461343457600080fd5b50565b61344081612d01565b811461344b57600080fd5b50565b61345781612d0d565b811461346257600080fd5b50565b61346e81612d17565b811461347957600080fd5b50565b61348581612d63565b811461349057600080fd5b5056fe68747470733a2f2f74757271756f6973652d73656c6563746976652d636865657461682d3834352e6d7970696e6174612e636c6f75642f697066732f516d546557516e435279345877577a6367756a796650737844466554446134376345384d54327032644a384d5544a26469706673582212208958880b242e00458dc29f5f7b70b82d8be3eadfb16ecc0252affad56fd85ca664736f6c63430008070033",
  "linkReferences": {},
  "deployedLinkReferences": {}
}